:020000040800F2
:100000006004002049010008610B00081D0B000876
:100010005D0B000895090008171300080000000098
:10002000000000000000000000000000190D0008A2
:100030009909000800000000E90B00082D0E0008D7
:100040006301000863010008630100086301000800
:1000500063010008630100086301000863010008F0
:1000600063010008630100086301000863010008E0
:1000700063010008630100086301000863010008D0
:1000800063010008630100086301000863010008C0
:1000900063010008630100086301000863010008B0
:1000A00063010008630100086301000863010008A0
:1000B0006301000863010008CD0E00086301000819
:1000C0006301000863010008630100086301000880
:1000D000630100085510000863010008630100086F
:1000E0006301000863010008630100086301000860
:1000F0006301000863010008630100086301000850
:10010000630100086301000863010008630100083F
:10011000630100086301000863010008630100082F
:10012000630100086301000863010008630100081F
:10013000DFF810D000F00CFB00480047D113000896
:10014000AFF300806004002006488047064800475F
:10015000FEE7FEE7FEE7FEE7FEE7FEE7FEE7FEE777
:10016000FEE7FEE76D0E0008310100082DE9FE4FA5
:10017000804681EA0300C00F0C46009021F0004148
:1001800023F00045B8EB0200A94105D240462146C4
:1001900090461C460B46024623F00040104347D0D1
:1001A000270DC7F30A00C3F30A510290401A0190C9
:1001B00040286BDAC3F3130040F4801B009892468A
:1001C00020B10023D2EB030A63EB0B0B01985946D5
:1001D000C0F14002504600F0F5F906460D46504683
:1001E0005946019A00F00DFA10EB08006141002415
:1001F00087EA115284EAE7731A4340D0009A62B347
:10020000019A012A4FEA075215DC001B61EB02013B
:100210004FF0004202EA0752CDE90042001C41F5CE
:10022000801132462B4600F044FA03B0BDE8F08F4F
:1002300040462146F9E7001B61EB0201001C41F535
:10024000801300185B412018A2F5001747EB03014B
:1002500040EAD570B6196D4111E06D084FEA3606D7
:1002600045EAC0754FEA0752001B61EB0201001C12
:1002700041F5801149084FEA3000001951413246DA
:100280002B4603B0BDE8F04F00F004BA00980122FD
:1002900040000023D0EB020263EBE073009821469C
:1002A0004FEAE074B8EB000061EB0401E9E783F08A
:1002B00000435BE781F0004158E72DE9FE4F81EAFA
:1002C000030404F0004421F0004100944FF0000BBF
:1002D00023F0004350EA01045ED052EA03045BD0ED
:1002E000C3F30A54C1F30A552C44A4F2F334019425
:1002F000A0FB0254C1F3130141F48011C3F31303B3
:1003000043F4801301FB024400FB034E840A970A66
:1003100044EA815447EA8357A4FB076802958D0A93
:1003200005FB07854FEA932C04FB0C542705029D1F
:100330004FEA065847EA1637B5EB08056EEB070C8F
:10034000870E920E47EA811742EA8312A7FB020149
:10035000B6EB0B0164EB00042B0D43EA0C335E1883
:1003600044EB1C50DA465146E7FB0201C5F3130487
:100370004FEA0B3343EA14534FEA0432019C43EA39
:100380000603A4F10C040294009CCDE900B400F033
:1003900090F903B0BDE8F08F00200146F9E72DE9A0
:1003A000F04D81EA030404F0004B21F000451446AF
:1003B0004FF0000A23F0004150EA050220D054EA31
:1003C00001021DD0C5F30A570246C5F31303C1F35A
:1003D0001300C1F30A5640F4801543F48013A7EBD1
:1003E0000608101BD64608F2FD3873EB050002D351
:1003F00008F1010801E092185B41B8F1000F03DA3F
:1004000000200146BDE8F08D00204FF48011064623
:1004100084460EE0171B73EB050705D3121B63EB35
:10042000050306434CEA010C49084FEA30009218D4
:100430005B4150EA0107EDD152EA030012D082EA93
:10044000040083EA0501084305D0101BAB4106D226
:100450000122002306E000224FF0004302E06FF08B
:10046000010253101AEB06004CEB085110EB0A0086
:1004700041EB0B01BDE8F04D00F00CB9C10F80EA73
:10048000E0700844CA079623002100F0D5B89623EF
:100490000022114600F0D0B80EB5C10F80EAE0701E
:1004A0000844CA07002140F233438DE80E000A4693
:1004B0000B4600F0FEF803B000BD0EB540F233412C
:1004C00002910021CDE900110A460B4600F0F1F837
:1004D00003B000BDC1F30A5210B5C1F3130140F2DD
:1004E000FF3341F480119A4201DA002010BD40F23E
:1004F00033439A42A2F2334203DC524200F071F8D5
:1005000010BD904010BD00F0004230F000400AD015
:10051000C10D01F56071C0F3160042EA0151C20835
:1005200040071143704700200146704730B5041E54
:1005300071F1000404DB4FF00044404264EB010120
:10054000141E73F1000405DB1C464FF000435242B9
:1005500063EB04038B4208BF824230BD30B5041EFA
:1005600071F1000404DB4FF00044404264EB0101F0
:10057000141E73F1000405DB1C464FF00043524289
:1005800063EB0403994208BF904230BD01F0004381
:1005900030B421F0004150EA010206D00A0DA2F564
:1005A0006072C1F31301002A02DC30BC00207047E6
:1005B000440F44EAC104C100E01830BC00EBC25053
:1005C00000F031B8202A04DB203A00FA02F10020C2
:1005D00070479140C2F1200320FA03F31943904081
:1005E0007047202A04DB203A21FA02F000217047EC
:1005F00021FA02F3D040C2F120029140084319468B
:100600007047202A06DBCB17203A41FA02F043EA72
:10061000E07306E041FA02F3D040C2F120029140BB
:100620000843194670470029A8BF7047401C49007D
:1006300008BF20F00100704710B4B0FA80FC00FA47
:100640000CF050EA010404BF10BC704749B1CCF172
:10065000200421FA04F411FA0CF118BF01212143FE
:100660000843A3EB0C01CB1D4FEA00614FEA1020B9
:1006700042BF002010BC704700EBC350104400295B
:10068000A4BF10BC7047401C490008BF20F0010007
:1006900010BC704710B5141E73F1000408DA401C3A
:1006A00041F1000192185B411A4301D120F0010091
:1006B00010BD2DE9F04D92469B4611B1B1FA81F281
:1006C00002E0B0FA80F220329046FFF77BFF04464A
:1006D0000F4640EA0A0041EA0B0153465A460843D6
:1006E00013D0114653EA010019D0C8F14002504618
:1006F000FFF777FF05460E46504659464246FFF73C
:1007000061FF084305D0012004E020463946BDE8DA
:10071000F08D0020054346EAE0762C4337430A98E3
:100720006305E40AA0EB08000022FD0A44EA4754EE
:100730000A3002D500200146E9E701051019694198
:10074000DDE9084500196941BDE8F04DA2E7000068
:10075000064C074D06E0E06840F0010394E807000E
:1007600098471034AC42F6D3FFF7E6FC6416000855
:100770008416000821B1826842F00102826003E021
:10078000826822F0010282607047014600208A6878
:1007900002F004020AB1012000E000207047014687
:1007A000C86C80B270470246002013680B400BB142
:1007B000012000E000207047014600208A6802F016
:1007C00008020AB1012000E00020704730B502465F
:1007D0000020002350680F4C20400D790C6844EA3B
:1007E00005242043506090680B4C2040D1E902540E
:1007F0002C434D7944EA450420439060D06A20F4AC
:1008000070000C7C641EE4B2234340EA0350D062C3
:1008100030BD0000FFFEF0FFFDF7F1FFF0B504462C
:100820000D4600200021092D11DDE068A5F10A0622
:1008300006EB4607072606FA07F18843A5F10A06E4
:1008400006EB460603FA06F10843E0600CE0206977
:1008500005EB4507072606FA07F1884305EB450631
:1008600003FA06F108432061072A0FDA606B561E6F
:1008700006EB86071F2606FA07F18843561E06EB8D
:10088000860605FA06F10843606322E00D2A0FDAB6
:10089000206BD61F06EB86071F2606FA07F1884352
:1008A000D61F06EB860605FA06F10843206310E022
:1008B000E06AA2F10D0606EB86071F2606FA07F18D
:1008C0008843A2F10D0606EB860605FA06F10843F9
:1008D000E062F0BD816841F008018160704721B19C
:1008E000826842F4A002826003E0826822F4A002DF
:1008F00082607047816841F00401816070470000A8
:1009000000B587B001214FF4017000F08BF94FF46E
:10091000004000F06BF90220ADF8180000208DF8BF
:100920001B0003208DF81A0006A9184800F03FF8B4
:10093000002001908DF808008DF809004FF4602028
:1009400003900020049001208DF8140001A91048A4
:10095000FFF73CFF01210E48FFF70CFF0C48FFF7A3
:10096000B9FF00BF0A48FFF727FF0028FAD108485F
:10097000FFF7C0FF00BF0648FFF707FF0028FAD1C6
:1009800001210348FFF7ABFF07B000BD000801409D
:100990000024014000BFFEE7704700220246130E0C
:1009A000CB70130C8B70130A4B700A7070472DE9D3
:1009B000F0410246002500260020002300240027E5
:1009C00091F803C00CF00F0591F803C00CF0100C67
:1009D000BCF1000F03D091F802C04CEA050591F874
:1009E00000C0BCF1000F31D0146800202BE04FF0A4
:1009F000010C0CFA00F3B1F800C00CEA03069E42A9
:100A000020D183004FF00F0C0CFA03F7BC4305FA1A
:100A100003FC4CEA040491F803C0BCF1280F06D192
:100A20004FF0010C0CFA00FCC2F814C00AE091F877
:100A300003C0BCF1480F05D14FF0010C0CFA00FCCB
:100A4000C2F810C0401C0828D1D31460B1F800C00F
:100A5000BCF1FF0F34DD546800202EE000F1080CDB
:100A60004FF0010808FA0CF3B1F800C00CEA0306D5
:100A70009E4221D183004FF00F0C0CFA03F7BC43C8
:100A800005FA03FC4CEA040491F803C0BCF1280FFA
:100A900005D100F1080C08FA0CF8C2F8148091F89E
:100AA00003C0BCF1480F07D100F1080C4FF001085A
:100AB00008FA0CF8C2F81080401C0828CED3546005
:100AC000BDE8F08141617047016170472DE9F04157
:100AD00005460C4600260723012229460E48FFF74B
:100AE0009DFE002710E001210B48FFF7F8FE00BF34
:100AF00002210948FFF757FE0028F9D00648FFF702
:100B00004EFE0644781CC7B2A742ECDBB6FBF4F0FD
:100B100080B2BDE8F08100000024014000BFFEE784
:100B200008B50121042000F07DF80320ADF8000095
:100B300010208DF8030003208DF802006946064856
:100B4000FFF735FF01210448FFF7BCFF02210248EF
:100B5000FFF7BAFF08BD00000008014000BFFEE734
:100B60007047000070B5002100230F22C47804B341
:100B7000154C246804F4E064C4F5E064210AC1F172
:100B80000403CA40447804FA03F1847814402143F2
:100B900009010E4C0678A155047804F01F050124C4
:100BA000AC4005786D11AD0005F1E025C5F80041B8
:100BB00009E0047804F01F050124AC40044D0678D8
:100BC000761145F8264070BD0CED00E000E400E031
:100BD00080E100E002490143024A116070470000D1
:100BE0000000FA050CED00E070470000014600200F
:100BF000034A506820F440400843506070470000AA
:100C00000010024029B1064AD2690243044BDA615E
:100C100004E0034AD2698243014BDA617047000065
:100C20000010024029B1064A92690243044B9A61BE
:100C300004E0034A92698243014B9A6170470000C5
:100C40000010024030B500210022002400232D4D69
:100C50006D6805F00C0121B1042905D0082923D1C4
:100C600005E0294D056022E0274D05601FE0254D78
:100C70006D6805F47012234D6D6805F4803402250B
:100C800005EB92421CB9214D554305600BE01D4D0B
:100C90006D6805F400351DB11C4D5543056002E03B
:100CA000194D5543056002E0174D056000BF00BFB8
:100CB000144D6D6805F0F0010909154D6B5C056870
:100CC000DD4045600F4D6D6805F4E061090A104D87
:100CD0006B5C4568DD4085600A4D6D6805F46051C8
:100CE000C90A0B4D6B5C4568DD40C560054D6D68FC
:100CF00005F44041890B074D6B5CC568B5FBF3F506
:100D0000056130BD0010024000127A0000093D006C
:100D10001000002020000020704710B500F002F8FD
:100D200010BD00000CB50020019000903348006811
:100D300040F480303149086000BF3048006800F45A
:100D4000003000900198401C0190009818B901985B
:100D5000B0F5A06FF1D12948006800F4003010B15F
:100D60000120009001E0002000900098012843D16C
:100D70002348006840F010002149086008460068D8
:100D800020F0030008600846006840F00200086098
:100D90001A48406819494860084640684860084653
:100DA000406840F4806048600846406820F47C1049
:100DB00048600846406840F4E8104860084600680B
:100DC00040F08070086000BF0C48006800F00070C0
:100DD0000028F9D00948406820F00300074948601E
:100DE0000846406840F00200486000BF0348406881
:100DF00000F00C000828F9D10CBD000000100240E2
:100E000000200240042808D14FF0E021096941F098
:100E100004014FF0E022116107E04FF0E021096981
:100E200021F004014FF0E02211617047704700008B
:100E300010B504466FF00400FFF7E4FFE11704EB80
:100E40005171C1F3C701074A11701046007800EBD9
:100E50004001C1EBC0104FF6FF7101EAC00002492A
:100E6000088010BD240000202600002010B5134883
:100E7000006840F0010011490860084640681049C8
:100E800008400E494860084600680E4908400B4972
:100E900008600846006820F4802008600846406822
:100EA00020F4FE0048604FF41F008860FFF735FF14
:100EB0004FF000600449086010BD000000100240BF
:100EC0000000FFF8FFFFF6FE08ED00E010B501217D
:100ED000064800F052F820B105480068401C04495B
:100EE00008600121014800F039F810BD00080040F9
:100EF000080000207FB505460C4601210420FFF7BD
:100F000081FEADF80850ADF804400020ADF80A00AD
:100F1000ADF8060001A9104800F04AF80122114678
:100F20000D4800F03BF801210B4800F017F81E2097
:100F30008DF8000002208DF8010003208DF80200DA
:100F400001208DF803006846FFF70CFE01210248DE
:100F500000F007F87FBD000000080040CA4302828D
:100F6000704721B1028842F00102028004E0028849
:100F70004FF6FE731A400280704730B502460020DB
:100F800000230024158A05EA0103958905EA010476
:100F900013B10CB1012000E0002030BD1AB18389EB
:100FA0000B43838102E083898B4383817047000078
:100FB000002202881D4B98420ED01D4B98420BD048
:100FC000B0F1804F08D01B4B984205D01A4B984285
:100FD00002D01A4B984204D14FF68F731A404B88B7
:100FE0001A43174B984207D0164B984204D04FF63D
:100FF000FF431A40CB881A4302808B8883850B8875
:1010000003850A4B98420BD0094B984208D00E4BEF
:10101000984205D00D4B984202D00D4B984201D119
:101020000B7A03860123838270470000002C014065
:10103000003401400004004000080040000C004063
:1010400000100040001400400040014000440140F6
:101050000048014010B540F225510C4800F096F8C8
:1010600070B10A4800F04EF9C4B22146074800F0BA
:101070004EF900BF4021054800F07BF80128F9D166
:101080004021024800F060F810BD00000038014027
:1010900010B586B0044601210420FFF7C3FD0121ED
:1010A0008803FFF7BFFD01210846FFF7BBFD4FF4A2
:1010B0000070ADF8140003208DF8160018208DF88C
:1010C000170005A91E48FFF772FC4FF48060ADF8C9
:1010D000140004208DF8170005A91948FFF767FCD4
:1010E00001940020ADF80800ADF80A00ADF80C003E
:1010F000ADF810000C20ADF80E0001A9114800F069
:1011000095F801210F4800F028F840210D4800F023
:101110001BF8012240F225510A4800F061F8252011
:101120008DF8000003208DF801008DF802000120E9
:101130008DF803006846FFF715FD06B010BD0000EE
:10114000000801400038014001F40072B2F5007F50
:1011500000D100BFCA430280704721B1828942F4A6
:101160000052828104E082894DF6FF731A40828129
:10117000704702460020B1F5007F00D100BF138800
:101180000B400BB1012000E00020704770B5024613
:10119000002400230025002040F66A16B14200D149
:1011A00000BFC1F3421501F01F03012606FA03F345
:1011B000012D02D19689334006E0022D02D1168A14
:1011C000334001E0968A33400C12012606FA04F4FB
:1011D0001688344013B10CB1012000E0002070BD2E
:1011E000F0B50346002400260025002040F66A17CB
:1011F000B94200D100BF1846C1F3421401F01F06E6
:10120000012707FA06F5012C01D10C3004E0022C6D
:1012100001D1103000E014301AB107682F43076085
:1012200002E00768AF430760F0BD00002DE9F0471A
:1012300086B005460E460024A24600BFA146002700
:10124000B08900B100BF2F462C8A4CF6FF700440D5
:10125000F08804432C82AC894EF6F3100440B08829
:1012600031890843718908430443AC81AC8A4FF645
:10127000FF400440B0890443AC8201A8FFF7E2FCC0
:101280001F48874202D1DDF810A001E0DDF80CA074
:10129000A88900F4004040B10AEBCA0000EB0A1034
:1012A00031684900B0FBF1F807E00AEBCA0000EB37
:1012B0000A1031688900B0FBF1F86420B8FBF0F047
:1012C00004012009642101FB1089A88900F4004071
:1012D00040B1322000EBC900B0FBF1F000F0070094
:1012E000044308E0322000EB09106421B0FBF1F068
:1012F00000F00F0004432C8106B0BDE8F087000029
:101300000038014001468888C0F308007047C1F3E7
:1013100008028280704700BFFEE702E008C8121F83
:1013200008C1002AFAD170477047002001E001C1CE
:10133000121F002AFBD1704770B504460D460020ED
:101340000D49086012E00D480B4A1268815C0C4898
:10135000FFF7DDFF00BF40210948FFF70AFF012822
:10136000F9D105480068401C03490860024800683C
:101370000B28E8DB002070BD0000002028000020C2
:10138000003801400146114A12784A434FF0E023E9
:101390005A6100229A611A46126942F001021A61EA
:1013A00000BF4FF0E022106900F001021AB100F412
:1013B0008032002AF5D04FF0E022126922F00102BB
:1013C0004FF0E0231A6100229A6170472400002048
:1013D0008CB0002600200A90002400258146099048
:1013E00008900E2141F61F40FFF784FD4820FFF7CB
:1013F0001FFD4FF4A060FFF7EDFBFFF791FB4FF4EB
:10140000C850FFF745FEFFF77BFAE4E0701CC6B258
:10141000304606EBD0714910A6EB4101D1B9052148
:101420000120FFF753FB0A900A98FFF730F8079066
:10143000FFF769F882464FF06632674BFEF73DFFD3
:101440000746FFF7A3F865490860644808990068F3
:1014500000F0D6F86420FFF795FF60480068FFF7BA
:1014600052F8074600225E4BFFF778F87ED2B9F1BA
:10147000000F7BD1601CC4B24FF0010959480068CD
:10148000594941F8240057480068584908600A2C17
:1014900010DB002507E05449681C51F8200041F892
:1014A0002500681CC5B2092DF5DB4E4800684E4981
:1014B00048620924032C0ADC4B4850F824004A49AE
:1014C0000968401AB0FBF4F080B2099050E0032C98
:1014D0004EDDA01EFEF7E0FFCDE90001A11E424A4D
:1014E00052F821101268881AFEF7E7FF0746404AB3
:1014F000404BFEF7E2FE8246DDE90023FEF74FFF98
:10150000CDE90401611E384A52F82120A11E364B54
:1015100053F82110501AFEF7D0FF07464FF0333230
:10152000354BFEF7CAFE82468B462F4951F82420E0
:10153000611E2D4B53F82110501AFEF7BEFF0746CF
:1015400000222E4BFEF7B9FE52465B46CDE9000164
:10155000FEF70CFECDE90201DDE90423FEF706FEED
:10156000CDE90601FEF7B6FF80B200E009E0099080
:101570004EF66021099891FBF0F73846FEF77EFFA2
:10158000089016480068FEF7BEFF07460022144B7D
:10159000FEF7CCFF04D2B9F1010F01D14FF00009E1
:1015A0001048006811490968401A41F288318842A0
:1015B00011D90E48006808440B490860012505E070
:1015C0000020094941F82500681CC5B20A2DF7DB47
:1015D00000240020089019E766664A3F04000020B6
:1015E0000000044008000020340000200C0000200F
:1015F0009A9999999999C93F3333D33F0000E03FB5
:1016000070B505460C46A52015490870491C2846AA
:10161000FFF7C3F91249491D2046FFF7BEF91048EC
:1016200040780F49897808440D49C97808440C4925
:10163000097908440A4949790844094989790844DB
:101640000749C97908440649097A08440449487297
:101650005A2088720B210248FFF76EFE70BD000011
:101660002800002084160008000000202800000048
:101670001A130008AC1600082800002038040000E7
:101680002A13000800000000000000000000000015
:101690000000000000000000010203040102030436
:0C16A0000607080902040608000000000C
:0400000508000131BD
:00000001FF
